:020000040800F2
:100000000050002051040008DD030008E903000847
:10001000EF030008F5030008FB03000800000000E0
:1000200000000000000000000000000001040008C3
:100030000D04000800000000190400082504000851
:10004000990400089904000899040008990400081C
:10005000990400089904000899040008990400080C
:1000600099040008990400089904000899040008FC
:1000700099040008990400089904000899040008EC
:1000800099040008990400089904000899040008DC
:100090003104000899040008990400089904000834
:1000A00099040008990400089904000899040008BC
:1000B00099040008990400089904000899040008AC
:1000C000990400089904000899040008990400089C
:1000D000990400089904000899040008990400088C
:1000E0009904000899040008990400080000000021
:1000F0000000000000000000000000000000000000
:0C01000000000000000000005FF808F1A3
:10010C0010B5054C237833B9044B13B10448AFF345
:10011C0000800123237010BD7C0100200000000032
:10012C003875000808B5034B1BB103490348AFF3FE
:10013C00008008BD00000000800100203875000818
:10014C0080B500AF00F0A4F900F016F800F09AF8B2
:10015C0000F06EF806F022FD4FF4FA6000F0FAF9A8
:10016C000D21044806F0D8FD4FF4FA6000F0F2F9C6
:10017C00F2E700BF5075000880B594B000AF07F1EE
:10018C00280328220021184607F0C8F907F11403A8
:10019C0000221A605A609A60DA601A613B1D0022D4
:1001AC001A605A609A60DA600123BB624FF48033A4
:1001BC00FB6200233B630123BB6302237B644FF48C
:1001CC008033BB644FF48013FB6407F1280318469B
:1001DC0002F03CF90346002B01D000F075F80F2318
:1001EC007B610223BB610023FB614FF480633B62A4
:1001FC0000237B6207F114030121184602F0A6FBD1
:10020C000346002B01D000F05FF810237B604FF405
:10021C0080033B613B1D184602F032FD0346002B68
:10022C0001D000F051F800BF5037BD4680BD000032
:10023C0080B500AF114B124A1A60104B4FF4E132EB
:10024C005A600E4B00229A600C4B0022DA600B4B6A
:10025C0000221A61094B0C225A61084B00229A6148
:10026C00064B0022DA61054802F0C0FD0346002B64
:10027C0001D000F029F800BF80BD00BFBC030020F6
:10028C000038014080B483B000AF0E4B9B690D4A1F
:10029C0043F0200393610B4B9B6903F020037B60BD
:1002AC007B68084B9B69074A43F004039361054B39
:1002BC009B6903F004033B603B6800BF0C37BD46F1
:1002CC0080BC70470010024080B400AF00BFBD4638
:1002DC0080BC704780B485B000AF154B9B69144A45
:1002EC0043F001039361124B9B6903F00103BB6064
:1002FC00BB680F4BDB690E4A43F08053D3610C4B48
:10030C00DB6903F080537B607B680A4B5B68FB60A6
:10031C00FB6823F0E063FB60FB6843F08063FB60E9
:10032C00044AFB68536000BF1437BD4680BC70475D
:10033C00001002400000014080B588B000AF78602A
:10034C0007F1100300221A605A609A60DA607B6829
:10035C001B681C4A934231D11B4B9B691A4A43F4CC
:10036C0080439361184B9B6903F48043FB60FB68EB
:10037C00154B9B69144A43F004039361124B9B6920
:10038C0003F00403BB60BB684FF400733B610223B2
:10039C007B610323FB6107F1100319460B4800F046
:1003AC000BFA4FF480633B6100237B610023BB613C
:1003BC0007F110031946054800F0FEF900BF20377D
:1003CC00BD4680BD003801400010024000080140CD
:1003DC0080B400AF00BFBD4680BC704780B400AF96
:1003EC00FEE780B400AFFEE780B400AFFEE780B458
:1003FC0000AFFEE780B400AF00BFBD4680BC7047C5
:10040C0080B400AF00BFBD4680BC704780B400AF65
:10041C0000BFBD4680BC704780B500AF00F07EF8D1
:10042C0000BF80BD80B500AF024800F07AFC00BF71
:10043C0080BD00BF9810002080B400AF00BFBD4647
:10044C0080BC70470C480D490D4A002302E0D4587B
:10045C00C4500433C4188C42F9D30A4A0A4C002302
:10046C0001E013600432A242FBD3FFF7E5FF07F073
:10047C0031F8FFF765FE7047000000207C0100207A
:10048C00D87500087C01002084130020FEE70000D2
:10049C0080B500AF084B1B68074A43F0100313608C
:1004AC00032000F047F9002000F008F8FFF712FFD6
:1004BC000023184680BD00BF0020024080B582B0EA
:1004CC0000AF7860124B1A68124B1B7819464FF428
:1004DC007A73B3FBF1F3B2FBF3F3184600F05FF958
:1004EC000346002B01D001230EE07B680F2B0AD8AA
:1004FC00002279684FF0FF3000F027F9064A7B683C
:10050C001360002300E0012318460837BD4680BD68
:10051C0000000020080000200400002080B400AF80
:10052C00054B1B781A46054B1B681344034A136092
:10053C0000BFBD4680BC70470800002000040020AE
:10054C0080B400AF024B1B681846BD4680BC704798
:10055C000004002080B584B000AF7860FFF7F0FF96
:10056C00B8607B68FB60FB68B3F1FF3F05D00A4BBA
:10057C001B781A46FB681344FB6000BFFFF7E0FFD3
:10058C000246BB68D31AFA689A42F7D800BF00BF7C
:10059C001037BD4680BD00BF0800002080B485B078
:1005AC0000AF78607B6803F00703FB600C4BDB68E3
:1005BC00BB60BA684FF6FF031340BB60FB681A02BE
:1005CC00BB68134343F0BF6343F40033BB60044A7E
:1005DC00BB68D36000BF1437BD4680BC704700BFFA
:1005EC0000ED00E080B400AF044BDB681B0A03F0A5
:1005FC0007031846BD4680BC704700BF00ED00E005
:10060C0080B483B000AF0346FB7197F90730002B21
:10061C000BDBFB7903F01F02064997F907305B09E6
:10062C00012000FA02F241F8232000BF0C37BD462E
:10063C0080BC704700E100E080B483B000AF03469B
:10064C003960FB7197F90730002B0ADB3B68DAB293
:10065C000C4997F907301201D2B20B4483F80023EE
:10066C000AE03B68DAB20849FB7903F00F03043B5C
:10067C001201D2B20B441A7600BF0C37BD4680BCB7
:10068C00704700BF00E100E000ED00E080B489B0ED
:10069C0000AFF860B9607A60FB6803F00703FB6198
:1006AC00FB69C3F10703042B28BF0423BB61FB695F
:1006BC000433062B02D9FB69033B00E000237B616A
:1006CC004FF0FF32BB6902FA03F3DA43BB681A40FE
:1006DC007B699A404FF0FF317B6901FA03F3D943F0
:1006EC007B680B40134318462437BD4680BC7047CB
:1006FC0080B582B000AF78607B68013BB3F1807F3E
:10070C0001D301230FE00A4A7B68013B53600F21A0
:10071C004FF0FF30FFF790FF054B00229A60044B1F
:10072C0007221A60002318460837BD4680BD00BF5B
:10073C0010E000E080B582B000AF78607868FFF719
:10074C002DFF00BF0837BD4680BD80B586B000AF19
:10075C000346B9607A60FB7300237B61FFF742FFAD
:10076C0078617A68B9687869FFF790FF024697F963
:10077C000F3011461846FFF75FFF00BF1837BD4614
:10078C0080BD80B582B000AF0346FB7197F907308E
:10079C001846FFF735FF00BF0837BD4680BD80B552
:1007AC0082B000AF78607868FFF7A2FF0346184666
:1007BC000837BD4680BD000080B48BB000AF7860B8
:1007CC00396000237B6200233B6269E101227B6A72
:1007DC0002FA03F3FB613B681B68FA691340BB61C7
:1007EC00BA69FB699A4240F058813B685B689A4A47
:1007FC0093425ED0984A934275D8984A934258D007
:10080C00964A93426FD8964A934252D0944A934256
:10081C0069D8944A93424CD0924A934263D8924AF4
:10082C00934246D0904A93425DD8122B2AD8122B71
:10083C0059D801A252F823F0BF0800089908000803
:10084C00AB080008ED080008F3080008F3080008DE
:10085C00F3080008F3080008F3080008F308000880
:10086C00F3080008F3080008F3080008F308000870
:10087C00F3080008F3080008F3080008A1080008B2
:10088C00B5080008794A934213D02CE03B68DB682A
:10089C003B6229E03B68DB6804333B6224E03B6845
:1008AC00DB6808333B621FE03B68DB680C333B6260
:1008BC001AE03B689B68002B02D104233B6213E0D7
:1008CC003B689B68012B05D108233B627B68FA6966
:1008DC001A6109E008233B627B68FA695A6103E0FC
:1008EC0000233B6200E000BFBB69FF2B01D87B6893
:1008FC0001E07B6804337B61BB69FF2B02D87B6A08
:10090C009B0002E07B6A083B9B003B617B691A6899
:10091C000F213B6901FA03F3DB431A40396A3B6947
:10092C0001FA03F31A437B691A603B685B6803F0B6
:10093C008053002B00F0B1804D4B9B694C4A43F027
:10094C00010393614A4B9B6903F00103BB60BB68D5
:10095C00484A7B6A9B08023352F82330FB607B6A5F
:10096C0003F003039B000F2202FA03F3DB43FA6844
:10097C001340FB607B68404A934213D07B683F4A2C
:10098C0093420DD07B683E4A934207D07B683D4A28
:10099C00934201D1032306E0042304E0022302E086
:1009AC00012300E000237A6A02F0030292009340D4
:1009BC00FA681343FB602F497B6A9B080233FA6881
:1009CC0041F823203B685B6803F48033002B06D08E
:1009DC002D4B1A682C49BB6913430B6006E02A4B5C
:1009EC001A68BB69DB43284913400B603B685B68A2
:1009FC0003F40033002B06D0234B5A682249BB6901
:100A0C0013434B6006E0204B5A68BB69DB431E491D
:100A1C0013404B603B685B6803F48013002B06D0DB
:100A2C00194B9A681849BB6913438B6006E0164B47
:100A3C009A68BB69DB43144913408B603B685B6865
:100A4C0003F40013002B21D00F4BDA680E49BB695D
:100A5C001343CB6021E000BF0000321000003110C6
:100A6C0000002210000021100000121000001110D4
:100A7C00001002400000014000080140000C014041
:100A8C000010014000140140000401400B4BDA68D7
:100A9C00BB69DB4309491340CB607B6A01337B6242
:100AAC003B681A687B6A22FA03F3002B7FF48EAE44
:100ABC0000BF00BF2C37BD4680BC7047000401400E
:100ACC00F0B58BB006AF78607B68002B01D10123A9
:100ADC00FDE07B6893F8A932DBB2002B06D17B6872
:100AEC00002283F8A822786806F04AFA7B68032271
:100AFC0083F8A9227B681B68184602F079FA7B6898
:100B0C001B683B607E686D4606F110040FCC0FC568
:100B1C0023682B60331D0ECB386802F043FA034672
:100B2C00002B05D07B68022283F8A9220123CEE09A
:100B3C007B681B680021184602F074FA0023FB73D3
:100B4C004CE0FB7B79685A1C13469B001344DB007A
:100B5C000B44013301221A70FB7B79685A1C134633
:100B6C009B001344DB000B44FA7B1A70FA7BFB7B73
:100B7C0098B2796813469B001344DB000B44363360
:100B8C0002461A80FB7B79685A1C13469B0013445F
:100B9C00DB000B44033300221A70FA7B796813468E
:100BAC009B001344DB000B44383300221A60FA7BA1
:100BBC00796813469B001344DB000B443C33002242
:100BCC001A60FA7B796813469B001344DB000B44D4
:100BDC00403300221A60FB7B0133FB73FA7B7B688A
:100BEC005B689A42ADD30023FB7344E0FA7B7968CF
:100BFC0013469B001344DB000B4403F269130022E1
:100C0C001A70FA7B796813469B001344DB000B4483
:100C1C0003F5B473FA7B1A70FA7B796813469B0060
:100C2C001344DB000B4403F26B1300221A70FA7BA3
:100C3C00796813469B001344DB000B4403F5BC732B
:100C4C0000221A60FA7B796813469B001344DB0080
:100C5C000B4403F5BE7300221A60FA7B79681346C5
:100C6C009B001344DB000B4403F5C07300221A6095
:100C7C00FB7B0133FB73FA7B7B685B689A42B5D3D1
:100C8C007B681B683B607E686D4606F110040FCCD8
:100C9C000FC523682B60331D0ECB386802F0CEF9DC
:100CAC000346002B05D07B68022283F8A92201237E
:100CBC000DE07B68002283F824207B68012283F8F6
:100CCC00A9227B681B68184604F03FFB00231846DA
:100CDC001437BD46F0BD80B582B000AF78607B683C
:100CEC0093F8A832012B01D1022316E07B68012274
:100CFC0083F8A8227B681B68184602F063F901216F
:100D0C00786806F0B0FB7B681B68184604F013FB90
:100D1C007B68002283F8A822002318460837BD46BA
:100D2C0080BD80B588B000AF78607B681B681846C2
:100D3C0004F015FB034603F40043B3F5004F02D156
:100D4C00786800F061FB7B681B68184604F007FBB1
:100D5C00034603F48063B3F5806F12D17B681B6884
:100D6C00B3F844309AB27B681B6822F4806292B26A
:100D7C00A3F84420786806F07EF90021786800F02A
:100D8C0025F97B681B68184604F0E9FA034603F45E
:100D9C008043B3F5804F0BD17B681B68B3F84430AC
:100DAC009AB27B681B6822F4804292B2A3F844206A
:100DBC007B681B68184604F0D2FA034603F4005310
:100DCC00B3F5005F0BD17B681B68B3F844309AB263
:100DDC007B681B6822F4005292B2A3F844207B6813
:100DEC001B68184604F0BBFA034603F48053B3F5B2
:100DFC00805F26D17B681B68B3F840309AB27B6861
:100E0C001B6822F0040292B2A3F840207B681B6896
:100E1C00B3F840309AB27B681B6822F0080292B299
:100E2C00A3F84020786806F05FF97B681B68B3F87C
:100E3C0044309AB27B681B6822F4805292B2A3F8B9
:100E4C0044207B681B68184604F089FA034603F4B7
:100E5C000063B3F5006F40F084800023FB7711E052
:100E6C007B681B681A46FB7F9B001A44FB7F128829
:100E7C0092B25B0007F120010B4423F8142CFB7F8A
:100E8C000133FB77FB7F072BEAD97B681B68B3F830
:100E9C0040309AB27B681B6842F0010292B2A3F810
:100EAC0040207B681B68B3F840309AB27B681B68A3
:100EBC0022F0010292B2A3F8402000BF7B681B68AD
:100ECC00B3F844309BB203F48063002BF6D07B68FC
:100EDC001B68B3F844309AB27B681B6822F48062BA
:100EEC0092B2A3F844200023FB7710E0FB7F7A68D2
:100EFC0012681146FA7F92000A445B0007F1200148
:100F0C000B4433F8143C1380FB7F0133FB77FB7FDE
:100F1C00072BEBD97B681B68B3F840309AB27B681F
:100F2C001B6842F0080292B2A3F840207B681B6851
:100F3C00B3F844309AB27B681B6822F4006292B218
:100F4C00A3F844207B681B68B3F840309AB27B68E6
:100F5C001B6842F0040292B2A3F84020786806F0B5
:100F6C00A9F87B681B68184604F0F9F9034603F4EA
:100F7C000073B3F5007F0ED17B681B68B3F8443067
:100F8C009AB27B681B6822F4007292B2A3F84420D8
:100F9C00786806F062F87B681B68184604F0DFF985
:100FAC00034603F48073B3F5807F0BD17B681B6819
:100FBC00B3F844309AB27B681B6822F4807292B208
:100FCC00A3F8442000BF2037BD4680BD80B582B059
:100FDC0000AF78600B46FB707B6893F8A832012B4E
:100FEC0001D1022313E07B68012283F8A8227B68DD
:100FFC00FA7883F824207B681B68FA781146184627
:10100C0004F086F97B68002283F8A8220023184696
:10101C000837BD4680BD80B584B000AF7860084607
:10102C0011461A460346FB700B463B801346BB70B9
:10103C000023FB7297F90330002B0EDAFB7803F0D8
:10104C0007035A1C13469B001344DB007A681344B5
:10105C00FB60FB6801225A700EE0FB7803F007027C
:10106C0013469B001344DB0003F5B4737A681344F6
:10107C00FB60FB6800225A70FB7803F00703DAB2BE
:10108C00FB681A703A88FB681A61FB68BA78DA70E8
:10109C00FB685B78002B04D0FB681B789AB2FB686A
:1010AC00DA81BB78022B02D1FB6800221A717B68B3
:1010BC0093F8A832012B01D102230EE07B680122A8
:1010CC0083F8A8227B681B68F968184601F0D6FFE4
:1010DC007B68002283F8A822FB7A18461037BD469D
:1010EC0080BD80B584B000AF78600B46FB7097F97B
:1010FC000330002B0EDAFB7803F007035A1C13465F
:10110C009B001344DB007A681344FB60FB680122EC
:10111C005A700EE0FB7803F0070213469B00134451
:10112C00DB0003F5B4737A681344FB60FB680022A0
:10113C005A70FB7803F00703DAB2FB681A707B680D
:10114C0093F8A832012B01D102230EE07B68012217
:10115C0083F8A8227B681B68F968184602F0F8FA35
:10116C007B68002283F8A822002318461037BD465E
:10117C0080BD80B586B000AFF8607A603B600B46EE
:10118C00FB72FB7A03F0070213469B001344DB004F
:10119C0003F5B473FA6813447B617B697A685A610E
:1011AC007B693A689A617B690022DA617B6900226B
:1011BC005A70FB7A03F00703DAB27B691A70FB7A78
:1011CC0003F00703002B06D1FB681B6879691846EE
:1011DC0002F0AAFC05E0FB681B687969184602F06E
:1011EC00A3FC002318461837BD4680BD80B483B0DD
:1011FC0000AF78600B46FB70FB7803F00702796850
:10120C0013469B001344DB000B4403F5C2731B68AD
:10121C0018460C37BD4680BC704780B586B000AF11
:10122C00F8607A603B600B46FB72FB7A03F00703B5
:10123C005A1C13469B001344DB00FA6813447B6171
:10124C007B697A685A617B693A689A617B69012289
:10125C0083F824207B693A681A627B690022DA6180
:10126C007B6901225A70FB7A03F00703DAB27B69BF
:10127C001A70FB7A03F00703002B06D1FB681B687E
:10128C007969184602F050FC05E0FB681B68796927
:10129C00184602F049FC002318461837BD4680BD9D
:1012AC0080B584B000AF78600B46FB70FB7803F020
:1012BC0007027B685B689A4201D901234CE097F9DD
:1012CC000330002B0EDAFB7803F007035A1C13468D
:1012DC009B001344DB007A681344FB60FB6801221B
:1012EC005A700CE0FA7813469B001344DB0003F5AC
:1012FC00B4737A681344FB60FB6800225A70FB6875
:10130C0001229A70FB7803F00703DAB2FB681A70BB
:10131C007B6893F8A832012B01D102231CE07B6877
:10132C00012283F8A8227B681B68F968184603F031
:10133C00F2FEFB7803F00703002B08D17B681A68D8
:10134C007B6803F52C731946104604F017F87B687C
:10135C00002283F8A822002318461037BD4680BD12
:10136C0080B584B000AF78600B46FB70FB7803F05F
:10137C000F027B685B689A4201D9012340E097F920
:10138C000330002B0EDAFB7803F007035A1C1346CC
:10139C009B001344DB007A681344FB60FB6801225A
:1013AC005A700EE0FB7803F0070213469B001344BF
:1013BC00DB0003F5B4737A681344FB60FB6800220E
:1013CC005A70FB6800229A70FB7803F00703DAB2BC
:1013DC00FB681A707B6893F8A832012B01D10223A9
:1013EC000EE07B68012283F8A8227B681B68F968F1
:1013FC00184603F0E0FE7B68002283F8A822002345
:10140C0018461037BD4680BD80B58EB000AF7860F1
:10141C00ECE27B681B68B3F84430FB85FB8DDBB2D8
:10142C0003F00F0387F82D3097F82D30002B40F088
:10143C006181FB8D03F01003002B52D17B681B687C
:10144C001B889BB223F4E14323F07003FB817B6880
:10145C001A68FB896FEA43436FEA53439BB21380CC
:10146C007B6828337B627B681B68B3F850309BB277
:10147C001A467B6A1B78DB00134402335B007A68E4
:10148C001268134403F580631B88C3F309027B6A5B
:10149C00DA617B6A5A697B6ADB691A447B6A5A6136
:1014AC000021786805F0BFFD7B6893F82430DBB22F
:1014BC00002B00F09B827B6A9B69002B40F096828C
:1014CC007B6893F82430DBB263F07F03DAB27B687D
:1014DC001B6892B2A3F84C207B68002283F824206E
:1014EC0084E27B6803F5B4737B627B681B681B88A2
:1014FC007B857B8D03F40063002B34D07B681B68E9
:10150C00B3F850309BB21A467B6A1B78DB0013444D
:10151C0006335B007A681268134403F580631B88FA
:10152C00C3F309027B6ADA617B6818687B6803F590
:10153C002C717B6ADA887B6ADB699BB203F06EFFE5
:10154C007B681B681B889AB240F68F7313403B82F2
:10155C007B681B683A8A42F0800292B21A807868E3
:10156C0005F034FD42E2B7F92A30002B80F23E82BE
:10157C007B681B681B889AB240F68F731340BB8341
:10158C007B681B68BA8B42F0800292B21A807B682F
:10159C001B68B3F850309BB21A467B6A1B78DB0091
:1015AC00134406335B007A681268134403F58063B6
:1015BC001B88C3F309027B6ADA617B6ADB69002B47
:1015CC0019D07B6A5B69002B15D07B6818687B6A25
:1015DC0059697B6ADA887B6ADB699BB203F01EFF70
:1015EC007B6A5A697B6ADB691A447B6A5A610021FF
:1015FC00786805F0FDFC7B681B681B889BB203F4C4
:10160C000063002B40F0F2817B681B68BB617B6838
:10161C001B68B3F850309BB21A46BB691344BB61CC
:10162C00BB6903F20C437B617B6A1B69002B12D1F3
:10163C007B691B889BB223F4F8439AB27B691A80AE
:10164C007B691B889BB26FEA43436FEA53439AB2A0
:10165C007B691A802FE07B6A1B693E2B13D87B6A4F
:10166C001B695B083B637B6A1B6903F00103002B5E
:10167C0002D03B6B01333B633B6B9BB29B029AB238
:10168C007B691A8017E07B6A1B695B093B637B6A89
:10169C001B6903F01F03002B02D13B6B013B3B6327
:1016AC003B6B9BB29B029BB26FEA43436FEA534383
:1016BC009AB27B691A807B681B681B889BB223F4E7
:1016CC00804323F070037B827B8A83F480537B827C
:1016DC007B8A83F400537B827B681A687B8A43F095
:1016EC007F4343F47F0343F4004343F080039BB2F6
:1016FC0013807BE17B681B681A4697F82D309B00A2
:10170C0013441B887B85B7F92A30002B80F2EA80C2
:10171C007B681B681A4697F82D309B0013441B8876
:10172C009AB240F68F7313403B857B681B681A4650
:10173C0097F82D309B0013443A8D42F0800292B200
:10174C001A8097F82D2013469B001344DB0003F5F9
:10175C00B4737A6813447B627B6A1B7B002B22D1A7
:10176C007B681B68B3F850309BB21A467B6A1B78B7
:10177C00DB00134406335B007A681268134403F5EC
:10178C0080631B88C3F30903FB86FB8E002B00F0E0
:10179C0087807B6818687B6A59697B6ADA88FB8E5C
:1017AC0003F03CFE7CE07B6ADB78022B08D17B8D5E
:1017BC001A46796A786800F027F90346FB866FE0D1
:1017CC007B681B681A467B6A1B789B0013441B883A
:1017DC009BB223F4E04323F070037B847B681B688B
:1017EC001A467B6A1B789B001A447B8C43F07F4320
:1017FC0043F47F0343F4004343F0C0039BB21380D4
:10180C007B681B681A467B6A1B789B0013441B88F9
:10181C009BB203F48043002B21D07B681B68B3F888
:10182C0050309BB21A467B6A1B78DB0013440233A0
:10183C005B007A681268134403F580631B88C3F35A
:10184C000903FB86FB8E002B2AD07B6818687B6A09
:10185C0059697B6A1A89FB8E03F0E0FD20E07B68F6
:10186C001B68B3F850309BB21A467B6A1B78DB00BE
:10187C00134406335B007A681268134403F58063E3
:10188C001B88C3F30903FB86FB8E002B08D07B68F7
:10189C0018687B6A59697B6A5A89FB8E03F0BEFD16
:1018AC007B6ADA69FB8E1A447B6ADA617B6A5A6955
:1018BC00FB8E1A447B6A5A617B6A9B69002B04D0AD
:1018CC00FA8E7B6A1B699A4206D27B6A1B78194690
:1018DC00786805F08DFB05E07B681B68796A184613
:1018EC0002F022F97B8D03F08003002B7ED097F859
:1018FC002D305A1C13469B001344DB007A681344AA
:10190C007B627B681B681A4697F82D309B0013444A
:10191C001B889BB223F4E14323F070033B847B6868
:10192C001B681A4697F82D309B001A443B8C6FEAC3
:10193C0043436FEA53439BB213807B6ADB78032BE0
:10194C000CD07B6ADB78002B08D07B6ADB78022B0F
:10195C0046D17B8D03F48073002B41D17B681B68CF
:10196C00B3F850309BB21A467B6A1B78DB001344E9
:10197C0002335B007A681268134403F580631B889A
:10198C00C3F30903FB837B6A9A69FB8B9A4206D9E2
:10199C007B6A9A69FB8BD21A7B6A9A6102E07B6A3A
:1019AC0000229A617B6A9B69002B06D17B6A1B78AB
:1019BC001946786805F037FB18E07B6A5A69FB8B8F
:1019CC001A447B6A5A617B6ADA69FB8B1A447B6A1C
:1019DC00DA617B681B68796A184602F0A5F805E0A5
:1019EC007B8D1A46796A786800F01BF97B681B6856
:1019FC00B3F844309BB21BB2002BFFF60AAD0023A8
:101A0C0018463837BD4680BD80B588B000AFF86049
:101A1C00B9601346FB80FB8803F48043002B7ED017
:101A2C00FB681B68B3F850309BB21A46BB681B7836
:101A3C00DB00134402335B00FA681268134403F5AD
:101A4C0080631B88C3F309037B83BB689A697B8B18
:101A5C009A4206D3BB689A697B8BD21ABB689A618F
:101A6C0002E0BB6800229A61BB689B69002B23D102
:101A7C00FB681B681A46BB681B789B0013441B88C9
:101A8C009BB223F4804323F070033B833B8B83F4A2
:101A9C0000533B83FB681B681A46BB681B789B0092
:101AAC001A443B8B43F07F4343F47F0343F40043DE
:101ABC0043F080039BB21380FB8803F04003002BA0
:101ACC001FD0FB681B681A46BB681B789B0013442D
:101ADC001B889BB223F4E04323F07003FB82FB686A
:101AEC001B681A46BB681B789B001A44FB8A43F0A0
:101AFC007F4343F47F0343F4004343F0C0039BB2A2
:101B0C0013807B8B002B00F08780FB681868BB6808
:101B1C005969BB681A897B8B03F080FC7CE0FB68FD
:101B2C001B68B3F850309BB21A46BB681B78DB00BD
:101B3C00134406335B00FA681268134403F58063A0
:101B4C001B88C3F309037B83BB689A697B8B9A421E
:101B5C0006D3BB689A697B8BD21ABB689A6102E088
:101B6C00BB6800229A61BB689B69002B23D1FB6880
:101B7C001B681A46BB681B789B0013441B889BB2DE
:101B8C0023F4804323F07003FB83FB8B83F400531B
:101B9C00FB83FB681B681A46BB681B789B001A44C6
:101BAC00FB8B43F07F4343F47F0343F4004343F048
:101BBC0080039BB21380FB8803F04003002B1FD1E2
:101BCC00FB681B681A46BB681B789B0013441B8878
:101BDC009BB223F4E04323F07003BB83FB681B68C8
:101BEC001A46BB681B789B001A44BB8B43F07F439F
:101BFC0043F47F0343F4004343F0C0039BB21380D0
:101C0C007B8B002B08D0FB681868BB685969BB68D4
:101C1C005A897B8B03F002FC7B8B18462037BD4620
:101C2C0080BD80B5A2B000AFF860B9601346FB80F0
:101C3C00FB8803F04003002B00F0C781FB681B6896
:101C4C00B3F850309BB21A46BB681B78DB001344C8
:101C5C0002335B00FA681268134403F580631B8837
:101C6C00C3F30903A7F84E30BB689A69B7F84E3036
:101C7C009A4207D9BB689A69B7F84E30D21ABB683A
:101C8C009A6102E0BB6800229A61BB689B69002BD9
:101C9C0040F0B980BB685B78002B26D1FB681B68D1
:101CAC00BB62FB681B68B3F850309BB21A46BB6A28
:101CBC001344BB62BB681B781A01BB6A134403F262
:101CCC0004437B627B6A1B889BB223F4F8439AB271
:101CDC007B6A1A807B6A1B889BB26FEA43436FEA6C
:101CEC0053439AB27B6A1A801AE0BB685B78012B6B
:101CFC0016D1FB681B683B63FB681B68B3F850305C
:101D0C009BB21A463B6B13443B63BB681B781A01AE
:101D1C003B6B134403F20443FB62FB6A00221A8000
:101D2C00FB681B683B62BB685B78002B26D1FB68A9
:101D3C001B68BB61FB681B68B3F850309BB21A463A
:101D4C00BB691344BB61BB681B781A01BB691344A4
:101D5C0003F20C437B617B691B889BB223F4F84331
:101D6C009AB27B691A807B691B889BB26FEA4343EA
:101D7C006FEA53439AB27B691A8017E0BB685B78B1
:101D8C00012B13D1FB681B68B3F850309BB21A4679
:101D9C003B6A13443B62BB681B781A013B6A1344D1
:101DAC0003F20C43FB61FB6900221A80BB681B78B1
:101DBC001946F86805F037F9FB8803F48043002BCB
:101DCC0000F0D482FB681B681A46BB681B789B002A
:101DDC0013441B889BB223F4E04323F070037B82F3
:101DEC00FB681B681A46BB681B789B001A447B8AED
:101DFC0043F07F4343F47F0343F4404343F08003B9
:101E0C009BB21380B2E2FB8803F48043002B21D0F9
:101E1C00FB681B681A46BB681B789B0013441B8825
:101E2C009BB223F4E04323F07003A7F84430FB6823
:101E3C001B681A46BB681B789B001A44B7F84430E1
:101E4C0043F07F4343F47F0343F4404343F0800368
:101E5C009BB21380BB6893F82430012B40F0868230
:101E6C00BB685A69B7F84E301A44BB685A61BB68F4
:101E7C00DA69B7F84E301A44BB68DA61BB681A6A83
:101E8C00BB681B699A4209D3BB681B693B65BB687D
:101E9C001A6A3B6DD21ABB681A6215E0BB681B6AE2
:101EAC00002B07D1B7F84E303B65BB68002283F896
:101EBC00242009E0BB68002283F82420BB681B6A3D
:101ECC003B65BB6800221A62BB685B78002B55D15E
:101EDC00FB681B68BB63FB681B68B3F850309BB294
:101EEC001A46BB6B1344BB63BB681B781A01BB6BF4
:101EFC00134403F204437B633B6D002B12D17B6BC9
:101F0C001B889BB223F4F8439AB27B6B1A807B6BD1
:101F1C001B889BB26FEA43436FEA53439AB27B6BC5
:101F2C001A8047E03B6D3E2B11D83B6D5B08BB64C0
:101F3C003B6D03F00103002B02D0BB6C0133BB647F
:101F4C00BB6C9BB29B029AB27B6B1A8032E03B6DEE
:101F5C005B09BB643B6D03F01F03002B02D1BB6C10
:101F6C00013BBB64BB6C9BB29B029BB26FEA4343CD
:101F7C006FEA53439AB27B6B1A801BE0BB685B78A9
:101F8C00012B17D1FB681B683B64FB681B68B3F81B
:101F9C0050309BB21A463B6C13443B64BB681B78B5
:101FAC001A013B6C134403F20443FB633B6D9AB27E
:101FBC00FB6B1A80FB681868BB685969BB681A8987
:101FCC003B6D9BB203F0E5F9D0E1FB681B68B3F8FD
:101FDC0050309BB21A46BB681B78DB0013440633A7
:101FEC005B00FA681268134403F580631B88C3F323
:101FFC000903A7F84E30BB689A69B7F84E309A427D
:10200C0007D3BB689A69B7F84E30D21ABB689A618D
:10201C0002E0BB6800229A61BB689B69002B40F010
:10202C00C480BB685B78002B26D1FB681B68FB6601
:10203C00FB681B68B3F850309BB21A46FB6E134416
:10204C00FB66BB681B781A01FB6E134403F2044356
:10205C00BB66BB6E1B889BB223F4F8439AB2BB6E73
:10206C001A80BB6E1B889BB26FEA43436FEA5343E3
:10207C009AB2BB6E1A801AE0BB685B78012B16D142
:10208C00FB681B687B67FB681B68B3F850309BB21E
:10209C001A467B6F13447B67BB681B781A017B6FF6
:1020AC00134403F204433B673B6F00221A80FB6826
:1020BC001B68BB67BB685B78002B2FD1FB681B6868
:1020CC00C7F88030FB681B68B3F850309BB21A46D7
:1020DC00D7F880301344C7F88030BB681B781A01DE
:1020EC00D7F88030134403F20C43C7F88430D7F888
:1020FC0084301B889BB223F4F8439AB2D7F884300F
:10210C001A80D7F884301B889BB26FEA43436FEA7E
:10211C0053439AB2D7F884301A8017E0BB685B78C7
:10212C00012B13D1FB681B68B3F850309BB21A46D5
:10213C00BB6F1344BB67BB681B781A01BB6F13449E
:10214C0003F20C43FB67FB6F00221A80BB681B7801
:10215C001946F86804F067FFFB8803F48043002BF2
:10216C0040F00481FB681B681A46BB681B789B0017
:10217C0013441B889BB223F4E04323F07003A7F8AD
:10218C004630FB681B681A46BB681B789B001A44D8
:10219C00B7F8463043F07F4343F47F0343F44043A6
:1021AC0043F080039BB21380E0E0FB8803F4804390
:1021BC00002B21D1FB681B681A46BB681B789B005F
:1021CC0013441B889BB223F4E04323F07003A7F85D
:1021DC004C30FB681B681A46BB681B789B001A4482
:1021EC00B7F84C3043F07F4343F47F0343F4404350
:1021FC0043F080039BB21380BB6893F82430012B0F
:10220C0040F0B480BB685A69B7F84E301A44BB68CA
:10221C005A61BB68DA69B7F84E301A44BB68DA61A8
:10222C00BB681A6ABB681B699A4209D3BB681B69F5
:10223C003B65BB681A6A3B6DD21ABB681A6215E023
:10224C00BB681B6A002B07D1B7F84E303B65BB68E7
:10225C00002283F8242009E0BB681B6A3B65BB683D
:10226C0000221A62BB68002283F82420FB681B68DA
:10227C007B66BB685B78002B55D1FB681B68FB65E4
:10228C00FB681B68B3F850309BB21A46FB6D1344C5
:10229C00FB65BB681B781A01FB6D134403F20C43FE
:1022AC00BB653B6D002B12D1BB6D1B889BB223F41D
:1022BC00F8439AB2BB6D1A80BB6D1B889BB26FEA58
:1022CC0043436FEA53439AB2BB6D1A8044E03B6DB3
:1022DC003E2B11D83B6D5B087B653B6D03F0010316
:1022EC00002B02D07B6D01337B657B6D9BB29B0217
:1022FC009AB2BB6D1A802FE03B6D5B097B653B6D21
:10230C0003F01F03002B02D17B6D013B7B657B6DC2
:10231C009BB29B029BB26FEA43436FEA53439AB260
:10232C00BB6D1A8018E0BB685B78012B14D1FB687D
:10233C001B68B3F850309BB21A467B6E13447B6615
:10234C00BB681B781A017B6E134403F20C433B668B
:10235C003B6D9AB23B6E1A80FB681868BB68596972
:10236C00BB685A893B6D9BB203F013F8FB681B6882
:10237C001A46BB681B789B0013441B889BB223F442
:10238C00E04323F040033B823B8A83F010033B8203
:10239C003B8A83F020033B82FB681B681A46BB68B0
:1023AC001B789B001A443B8A43F07F4343F47F0322
:1023BC0043F4004343F080039BB213800023184680
:1023CC008837BD4680BD80B487B000AFF8607B60B5
:1023DC000B467B8113463B817B8903F080039BB2C8
:1023EC00002B0BD07B8903F007035A1C13469B0070
:1023FC001344DB00FA6813447B6109E07A891346C5
:10240C009B001344DB0003F5B473FA6813447B613F
:10241C003B89002B07D17B6900221A737B689AB227
:10242C007B69DA800BE07B6901221A737B689AB2B4
:10243C007B691A817B681B0C9AB27B695A810023D9
:10244C0018461C37BD4680BC7047000080B586B06E
:10245C0000AF78607B68002B01D101236CE27B68B4
:10246C001B6803F00103002B00F08780924B5B6824
:10247C0003F00C03042B0CD08F4B5B6803F00C03A4
:10248C00082B12D18C4B5B6803F48033B3F5803F7F
:10249C000BD1894B1B6803F40033002B6CD07B6889
:1024AC005B68002B68D1012346E27B685B68B3F55F
:1024BC00803F06D1804B1B687F4A43F48033136006
:1024CC002EE07B685B68002B0CD17B4B1B687A4A37
:1024DC0023F480331360784B1B68774A23F48023F2
:1024EC0013601DE07B685B68B3F5A02F0CD1724BB9
:1024FC001B68714A43F4802313606F4B1B686E4A50
:10250C0043F4803313600BE06B4B1B686A4A23F473
:10251C0080331360684B1B68674A23F48023136075
:10252C007B685B68002B13D0FEF70AF8386108E073
:10253C00FEF706F802463B69D31A642B01D9032334
:10254C00FAE15D4B1B6803F40033002BF0D014E070
:10255C00FDF7F6FF386108E0FDF7F2FF02463B6934
:10256C00D31A642B01D90323E6E1534B1B6803F404
:10257C000033002BF0D100E000BF7B681B6803F038
:10258C000203002B63D04C4B5B6803F00C03002B55
:10259C000BD0494B5B6803F00C03082B1CD1464B4A
:1025AC005B6803F48033002B16D1434B1B6803F09C
:1025BC000203002B05D07B681B69012B01D0012382
:1025CC00BAE13D4B1B6823F0F8027B685B69DB00CA
:1025DC00394913430B603AE07B681B69002B20D010
:1025EC00364B01221A60FDF7ABFF386108E0FDF7AE
:1025FC00A7FF02463B69D31A022B01D903239BE1A7
:10260C002D4B1B6803F00203002BF0D02A4B1B68E8
:10261C0023F0F8027B685B69DB00274913430B60EE
:10262C0015E0264B00221A60FDF78AFF386108E09E
:10263C00FDF786FF02463B69D31A022B01D903230F
:10264C007AE11D4B1B6803F00203002BF0D17B6871
:10265C001B6803F00803002B3AD07B689B69002BA6
:10266C0019D0174B01221A60FDF76AFF386108E098
:10267C00FDF766FF02463B69D31A022B01D90323EF
:10268C005AE10D4B5B6A03F00203002BF0D00120E2
:10269C0000F0D8FA1CE00A4B00221A60FDF750FF3C
:1026AC0038610FE0FDF74CFF02463B69D31A022B51
:1026BC0008D9032340E100BF001002400000424251
:1026CC00800442429E4B5B6A03F00203002BE9D16B
:1026DC007B681B6803F00403002B00F0A68000232A
:1026EC00FB75974BDB6903F08053002B0DD1944B9A
:1026FC00DB69934A43F08053D361914BDB6903F060
:10270C008053BB60BB680123FB758E4B1B6803F4C5
:10271C008073002B18D18B4B1B688A4A43F480734F
:10272C001360FDF70DFF386108E0FDF709FF024665
:10273C003B69D31A642B01D90323FDE0814B1B6841
:10274C0003F48073002BF0D07B68DB68012B06D17F
:10275C007B4B1B6A7A4A43F0010313622DE07B68C2
:10276C00DB68002B0CD1764B1B6A754A23F00103F6
:10277C001362734B1B6A724A23F0040313621CE04E
:10278C007B68DB68052B0CD16D4B1B6A6C4A43F0E4
:10279C00040313626A4B1B6A694A43F00103136218
:1027AC000BE0674B1B6A664A23F001031362644B10
:1027BC001B6A634A23F0040313627B68DB68002BFB
:1027CC0015D0FDF7BDFE38610AE0FDF7B9FE0246F3
:1027DC003B69D31A41F28832934201D90323ABE00F
:1027EC00574B1B6A03F00203002BEED014E0FDF7ED
:1027FC00A7FE38610AE0FDF7A3FE02463B69D31A37
:10280C0041F28832934201D9032395E04C4B1B6A69
:10281C0003F00203002BEED1FB7D012B05D1484BBD
:10282C00DB69474A23F08053D3617B68DB69002B5B
:10283C0000F08180424B5B6803F00C03082B61D0E5
:10284C007B68DB69022B46D13F4B00221A60FDF7F7
:10285C0077FE386108E0FDF773FE02463B69D31A38
:10286C00022B01D9032367E0354B1B6803F000737F
:10287C00002BF0D17B681B6AB3F5803F08D1304B3D
:10288C005B6823F400327B689B682D4913434B60D3
:10289C002B4B5B6823F474127B68196A7B685B6A48
:1028AC000B43274913434B60274B01221A60FDF75A
:1028BC0047FE386108E0FDF743FE02463B69D31A38
:1028CC00022B01D9032337E01D4B1B6803F0007367
:1028DC00002BF0D02FE01C4B00221A60FDF730FECD
:1028EC00386108E0FDF72CFE02463B69D31A022B37
:1028FC0001D9032320E0124B1B6803F00073002B5B
:10290C00F0D118E07B68DB69012B01D1012313E0C6
:10291C000B4B5B68FB60FB6803F480327B681B6AC3
:10292C009A4206D1FB6803F470127B685B6A9A4288
:10293C0001D0012300E0002318461837BD4680BDA6
:10294C0000100240007000406000424280B584B02C
:10295C0000AF786039607B68002B01D10123D0E097
:10296C006A4B1B6803F007033A689A4210D9674B0D
:10297C001B6823F0070265493B6813430B60634BEC
:10298C001B6803F007033A689A4201D00123B8E0B0
:10299C007B681B6803F00203002B20D07B681B684C
:1029AC0003F00403002B05D0594B5B68584A43F4E1
:1029BC00E06353607B681B6803F00803002B05D0B1
:1029CC00534B5B68524A43F460535360504B5B6803
:1029DC0023F0F0027B689B684D4913434B607B6886
:1029EC001B6803F00103002B40D07B685B68012B54
:1029FC0007D1474B1B6803F40033002B15D101237F
:102A0C007FE07B685B68022B07D1414B1B6803F0AE
:102A1C000073002B09D1012373E03D4B1B6803F0BD
:102A2C000203002B01D101236BE0394B5B6823F0CF
:102A3C0003027B685B68364913434B60FDF780FDEE
:102A4C00F8600AE0FDF77CFD0246FB68D31A41F200
:102A5C008832934201D9032353E02D4B5B6803F07A
:102A6C000C027B685B689B009A42EBD1274B1B687E
:102A7C0003F007033A689A4210D2244B1B6823F0E8
:102A8C00070222493B6813430B60204B1B6803F081
:102A9C0007033A689A4201D0012332E07B681B6835
:102AAC0003F00403002B08D0194B5B6823F4E0629D
:102ABC007B68DB68164913434B607B681B6803F02B
:102ACC000803002B09D0124B5B6823F460527B681F
:102ADC001B69DB000E4913434B6000F021F80246E2
:102AEC000B4B5B681B0903F00F030A49CB5C22FA02
:102AFC0003F3094A1360094B1B681846FDF7DEFC0B
:102B0C00002318461037BD4680BD00BF0020024090
:102B1C0000100240B87500080000002004000020DE
:102B2C0090B48AB000AF2A4B3C1D0FCB84E80F0049
:102B3C0040F201233B800023FB610023BB61002397
:102B4C007B6200237B6100233B62224B5B68FB6151
:102B5C00FB6903F00C03042B02D0082B03D02DE0EF
:102B6C001D4B3B622DE0FB699B0C03F00F0307F13F
:102B7C002802134413F8243C7B61FB6903F4803373
:102B8C00002B13D0134B5B685B0C03F0010307F1B4
:102B9C002802134413F8283CBB617B690E4A02FBE4
:102BAC0003F2BB69B2FBF3F37B6204E07B690B4A73
:102BBC0002FB03F37B627B6A3B6202E0064B3B62E7
:102BCC0000BF3B6A18462837BD4690BC704700BF13
:102BDC00607500080010024000127A0000093D00E8
:102BEC0080B400AF024B1B681846BD4680BC7047D2
:102BFC000000002080B500AFFFF7F2FF0246054B46
:102C0C005B681B0A03F007030349CB5C22FA03F34E
:102C1C00184680BD00100240C875000880B500AF92
:102C2C00FFF7DEFF0246054B5B68DB0A03F0070388
:102C3C000349CB5C22FA03F3184680BD0010024016
:102C4C00C875000880B485B000AF78600A4B1B686B
:102C5C000A4AA2FB03235B0A7A6802FB03F3FB60BC
:102C6C0000BFFB685A1EFA60002BF9D100BF00BFF1
:102C7C001437BD4680BC704700000020D34D621055
:102C8C0080B586B000AF786000233B610023FB6009
:102C9C007B681B6803F00103002B7DD00023FB75C0
:102CAC004F4BDB6903F08053002B0DD14C4BDB6990
:102CBC004B4A43F08053D361494BDB6903F080539B
:102CCC00BB60BB680123FB75464B1B6803F4807328
:102CDC00002B18D1434B1B68424A43F4807313609A
:102CEC00FDF72EFC386108E0FDF72AFC02463B6933
:102CFC00D31A642B01D903236DE03A4B1B6803F400
:102D0C008073002BF0D0364B1B6A03F44073FB60CE
:102D1C00FB68002B2ED07B685B6803F44073FA6869
:102D2C009A4227D02E4B1B6A23F44073FB602E4B28
:102D3C0001221A602C4B00221A60294AFB6813628C
:102D4C00FB6803F00103002B14D0FDF7F9FB38618D
:102D5C000AE0FDF7F5FB02463B69D31A41F28832D3
:102D6C00934201D9032336E01D4B1B6A03F0020387
:102D7C00002BEED01A4B1B6A23F440727B685B6805
:102D8C00174913430B62FB7D012B05D1144BDB69F7
:102D9C00134A23F08053D3617B681B6803F0020352
:102DAC00002B08D00E4B5B6823F440427B689B6879
:102DBC000B4913434B607B681B6803F01003002B1B
:102DCC0008D0074B5B6823F480027B68DB680449FE
:102DDC0013434B60002318461837BD4680BD00BF17
:102DEC0000100240007000404004424280B582B0A6
:102DFC0000AF78607B68002B01D101233FE07B683A
:102E0C0093F83D30DBB2002B06D17B68002283F8AF
:102E1C003C207868FDF790FA7B68242283F83D20EB
:102E2C007B681B68DA687B681B6822F40052DA60E6
:102E3C00786800F029F87B681B681A697B681B6846
:102E4C0022F490421A617B681B685A697B681B6884
:102E5C0022F02A025A617B681B68DA687B681B685F
:102E6C0042F40052DA607B6800221A647B682022EC
:102E7C0083F83D207B68202283F83E2000231846EF
:102E8C000837BD4680BD000080B584B000AF7860C7
:102E9C007B681B681B6923F440517B68DA687B688C
:102EAC001B680A431A617B689A687B681B691A4322
:102EBC007B685B691343BB607B681B68DB6823F42E
:102ECC00B05323F00C037A681268B9680B43D360D3
:102EDC007B681B685B6923F440717B689A697B682B
:102EEC001B680A435A617B681B682C4A934203D1C6
:102EFC00FFF794FEF86002E0FFF77CFEF860FA68DA
:102F0C0013469B0013449A001A447B685B689B0031
:102F1C00B2FBF3F3224AA2FB03235B091901FA6803
:102F2C0013469B0013449A001A447B685B689B0011
:102F3C00B2FBF3F21A4BA3FB02035B09642000FB08
:102F4C0003F3D31A1B013233154AA2FB03235B098B
:102F5C0003F0F0031944FA6813469B0013449A00DB
:102F6C001A447B685B689B00B2FBF3F20C4BA3FB2F
:102F7C0002035B09642000FB03F3D31A1B013233F9
:102F8C00074AA2FB03235B0903F00F027B681B6853
:102F9C000A449A6000BF1037BD4680BD003801401E
:102FAC001F85EB5184B080B483B000AF786007F11B
:102FBC00140080E80E00002318460C37BD4680BC78
:102FCC0004B0704780B485B000AF78607B68002295
:102FDC00A3F844204FF43F43FB60FB689AB27B6834
:102FEC00A3F84020002318461437BD4680BC704718
:102FFC0080B485B000AF78604FF43F43FB607B68D2
:10300C00B3F840309AB2FB689BB2DB439BB21340DF
:10301C009AB27B68A3F84020002318461437BD46AB
:10302C0080BC704780B483B000AF78600B46FB70F7
:10303C00002318460C37BD4680BC704784B080B462
:10304C0083B000AF786007F1140080E80E007B6855
:10305C000122A3F840207B680022A3F840207B6863
:10306C000022A3F844207B680022A3F85020002300
:10307C0018460C37BD4680BC04B0704780B49BB07A
:10308C0000AF78603960002387F867307A683B6856
:10309C001B789B0013441B889BB223F4EC4323F056
:1030AC007003A7F864303B68DB78032B1FD801A2B0
:1030BC0052F823F0D1300008ED300008033100083D
:1030CC00DF300008B7F8643043F40073A7F86430BD
:1030DC0012E0B7F8643043F4C063A7F864300BE037
:1030EC00B7F8643043F48063A7F8643004E001233C
:1030FC0087F8673000E000BF7A683B681B789B005C
:10310C001A44B7F8643043F07F4343F47F0343F42D
:10311C00004343F080039BB213807A683B681B78B2
:10312C009B0013441B889BB223F4E04323F07003F1
:10313C009AB23B681B789BB21343A7F85E307A684F
:10314C003B681B789B001A44B7F85E3043F07F4312
:10315C0043F47F0343F4004343F080039BB213809A
:10316C003B681B7B002B40F049813B685B78002B54
:10317C0000F084807B687B617B68B3F850309BB235
:10318C001A467B6913447B613B681B781A017B6987
:10319C00134403F580633B613B68DB885B089BB29F
:1031AC005B009AB23B691A807A683B681B789B007B
:1031BC0013441B88FB81FB8903F04003002B1BD0BD
:1031CC007A683B681B789B0013441B889BB223F4E2
:1031DC00E04323F07003BB817A683B681B789B004B
:1031EC001A44BB8943F07F4343F47F0343F4004309
:1031FC0043F0C0039BB213803B68DB78012B20D0DB
:10320C007A683B681B789B0013441B889BB223F4A1
:10321C00E04323F040033B813B8983F020033B8157
:10322C007A683B681B789B001A443B8943F07F43C8
:10323C0043F47F0343F4004343F080039BB21380B9
:10324C007FE27A683B681B789B0013441B889BB217
:10325C0023F4E04323F040037B817A683B681B78BE
:10326C009B001A447B8943F07F4343F47F0343F470
:10327C00004343F080039BB2138062E27B68FB62E5
:10328C007B68B3F850309BB21A46FB6A1344FB625E
:10329C003B681B781A01FB6A134403F58163BB621C
:1032AC003B68DB885B089BB25B009AB2BB6A1A80F6
:1032BC007B687B627B68B3F850309BB21A467B6AA2
:1032CC0013447B623B681B781A017B6A134403F23C
:1032DC000C433B623B681B69002B12D13B6A1B8879
:1032EC009BB223F4F8439AB23B6A1A803B6A1B8860
:1032FC009BB26FEA43436FEA53439AB23B6A1A801C
:10330C002FE03B681B693E2B13D83B681B695B089D
:10331C003B663B681B6903F00103002B02D03B6E3C
:10332C0001333B663B6E9BB29B029AB23B6A1A809E
:10333C0017E03B681B695B093B663B681B6903F044
:10334C001F03002B02D13B6E013B3B663B6E9BB2D5
:10335C009B029BB26FEA43436FEA53439AB23B6AB8
:10336C001A807A683B681B789B0013441B88FB838C
:10337C00FB8B03F48043002B1BD07A683B681B78D3
:10338C009B0013441B889BB223F4E04323F070038F
:10339C00BB837A683B681B789B001A44BB8B43F059
:1033AC007F4343F47F0343F4404343F080039BB2D9
:1033BC0013807A683B681B789B0013441B889BB274
:1033CC0023F4804323F070037B837B8B83F4805343
:1033DC007B837B8B83F400537B837A683B681B78FD
:1033EC009B001A447B8B43F07F4343F47F0343F4ED
:1033FC00004343F080039BB21380A2E17A683B68E0
:10340C001B789B0013441B889BB223F4E04323F0EE
:10341C007003A7F85C307A683B681B789B001A44F1
:10342C00B7F85C3043F07F4343F47F0343F401432C
:10343C0043F080039BB213807B68BB657B68B3F859
:10344C0050309BB21A46BB6D1344BB653B681B786E
:10345C001A01BB6D134403F580637B653B681B89C4
:10346C005B089BB25B009AB27B6D1A807B683B65F4
:10347C007B68B3F850309BB21A463B6D13443B65E6
:10348C003B681B781A013B6D134403F58163FB64A5
:10349C003B685B895B089BB25B009AB2FB6C1A8041
:1034AC003B685B78002B40F091807A683B681B7816
:1034BC009B0013441B88BB87BB8F03F48043002BFA
:1034CC001BD07A683B681B789B0013441B889BB20B
:1034DC0023F4E04323F070037B877A683B681B7806
:1034EC009B001A447B8F43F07F4343F47F0343F4E8
:1034FC00404343F080039BB213807A683B681B788F
:10350C009B0013441B883B873B8F03F04003002B2D
:10351C001BD07A683B681B789B0013441B889BB2BA
:10352C0023F4E04323F07003FB867A683B681B7836
:10353C009B001A44FB8E43F07F4343F47F0343F418
:10354C00004343F0C0039BB213807A683B681B783E
:10355C009B0013441B889BB223F4804323F070031D
:10356C00BB86BB8E83F48053BB86BB8E83F4005327
:10357C00BB867A683B681B789B001A44BB8E43F071
:10358C007F4343F47F0343F4004343F080039BB237
:10359C0013807A683B681B789B0013441B889BB292
:1035AC0023F4E04323F040037B867A683B681B7866
:1035BC009B001A447B8E43F07F4343F47F0343F418
:1035CC00004343F080039BB21380BAE07A683B68F7
:1035DC001B789B0013441B88A7F84A30B7F84A3075
:1035EC0003F48043002B1DD07A683B681B789B004A
:1035FC0013441B889BB223F4E04323F07003A7F819
:10360C0048307A683B681B789B001A44B7F84830FE
:10361C0043F07F4343F47F0343F4404343F0800380
:10362C009BB213807A683B681B789B0013441B8801
:10363C00A7F84630B7F8463003F04003002B1DD0F6
:10364C007A683B681B789B0013441B889BB223F45D
:10365C00E04323F07003A7F844307A683B681B788A
:10366C009B001A44B7F8443043F07F4343F47F0384
:10367C0043F4004343F0C0039BB213803B68DB78F8
:10368C00012B24D07A683B681B789B0013441B8861
:10369C009BB223F4E04323F04003A7F84030B7F883
:1036AC00403083F02003A7F840307A683B681B78E1
:1036BC009B001A44B7F8403043F07F4343F47F0338
:1036CC0043F4004343F080039BB213801DE07A68FF
:1036DC003B681B789B0013441B889BB223F4E0438C
:1036EC0023F04003A7F842307A683B681B789B00B4
:1036FC001A44B7F8423043F07F4343F47F0343F45A
:10370C00004343F080039BB213807A683B681B78BC
:10371C009B0013441B889BB223F4804323F070035B
:10372C00FB877A683B681B789B001A44FB8F43F03D
:10373C007F4343F47F0343F4004343F080039BB285
:10374C00138097F8673018466C37BD4680BC7047BD
:10375C0080B48DB000AF786039603B681B7B002B68
:10376C0040F08E803B685B78002B44D07A683B68D5
:10377C001B789B0013441B88BB81BB8903F040035F
:10378C00002B1BD07A683B681B789B0013441B886A
:10379C009BB223F4E04323F070037B817A683B688F
:1037AC001B789B001A447B8943F07F4343F47F03CF
:1037BC0043F4004343F0C0039BB213807A683B6828
:1037CC001B789B0013441B889BB223F4E04323F02B
:1037DC0040033B817A683B681B789B001A443B8909
:1037EC0043F07F4343F47F0343F4004343F08003EF
:1037FC009BB2138092E17A683B681B789B00134460
:10380C001B887B827B8A03F48043002B1BD07A6855
:10381C003B681B789B0013441B889BB223F4E0434A
:10382C0023F070033B827A683B681B789B001A4438
:10383C003B8A43F07F4343F47F0343F4404343F01C
:10384C0080039BB213807A683B681B789B001344FF
:10385C001B889BB223F4804323F07003FB817A68AE
:10386C003B681B789B001A44FB8943F07F4343F46D
:10387C007F0343F4004343F080039BB213804DE17C
:10388C003B685B78002B40F0A5807A683B681B781E
:10389C009B0013441B883B843B8C03F48043002B1C
:1038AC001BD07A683B681B789B0013441B889BB227
:1038BC0023F4E04323F07003FB837A683B681B78A6
:1038CC009B001A44FB8B43F07F4343F47F0343F488
:1038DC00404343F080039BB213807A683B681B78AB
:1038EC009B0013441B88BB83BB8B03F04003002B52
:1038FC001BD07A683B681B789B0013441B889BB2D7
:10390C0023F4E04323F070037B837A683B681B78D5
:10391C009B001A447B8B43F07F4343F47F0343F4B7
:10392C00004343F0C0039BB213807A683B681B785A
:10393C009B0013441B889BB223F4E04323F07003D9
:10394C003B837A683B681B789B001A443B8B43F0A3
:10395C007F4343F47F0343F4004343F0C0039BB223
:10396C0013807A683B681B789B0013441B889BB2BE
:10397C0023F4804323F07003FB827A683B681B7846
:10398C009B001A44FB8A43F07F4343F47F0343F4C8
:10399C00004343F080039BB213807A683B681B782A
:1039AC009B0013441B889BB223F4E04323F0400399
:1039BC00BB827A683B681B789B001A44BB8A43F035
:1039CC007F4343F47F0343F4004343F080039BB2F3
:1039DC001380A3E07A683B681B789B0013441B8818
:1039EC00FB85FB8D03F48043002B1BD07A683B686E
:1039FC001B789B0013441B889BB223F4E04323F0F9
:103A0C007003BB857A683B681B789B001A44BB8D9E
:103A1C0043F07F4343F47F0343F4404343F080037C
:103A2C009BB213807A683B681B789B0013441B88FD
:103A3C007B857B8D03F04003002B1BD07A683B68A1
:103A4C001B789B0013441B889BB223F4E04323F0A8
:103A5C0070033B857A683B681B789B001A443B8D4E
:103A6C0043F07F4343F47F0343F4004343F0C0032C
:103A7C009BB213807A683B681B789B0013441B88AD
:103A8C009BB223F4E04323F07003FB847A683B6819
:103A9C001B789B001A44FB8C43F07F4343F47F0359
:103AAC0043F4404343F080039BB213807A683B6835
:103ABC001B789B0013441B889BB223F4E04323F038
:103ACC004003BB847A683B681B789B001A44BB8C10
:103ADC0043F07F4343F47F0343F4004343F08003FC
:103AEC009BB213807A683B681B789B0013441B883D
:103AFC009BB223F4804323F070037B847A683B6889
:103B0C001B789B001A447B8C43F07F4343F47F0368
:103B1C0043F4004343F080039BB213800023184608
:103B2C003437BD4680BC704780B5CCB000AF3B1D70
:103B3C0018603B4619603B461B685B78012B40F0D4
:103B4C002E873B461B689A693B461B681B699A4249
:103B5C0005D93B461B681B69C7F82C3104E03B4672
:103B6C001B689B69C7F82C313B461B681B7B002BE1
:103B7C0034D13B461B6859693B461B68DA88D7F839
:103B8C002C319BB2381D006801F003FC07F11003C7
:103B9C003A1D12681A603B1D1B68B3F850309BB27B
:103BAC00194607F1100307F1100212680A441A6053
:103BBC003B461B681B781A0107F110031B68134462
:103BCC0003F2044207F10C031A60D7F82C319AB2B5
:103BDC0007F10C031B681A8000F0ACBE3B461B6857
:103BEC00DB78022B40F08C833B461B681A6A3B4601
:103BFC001B681B699A4240F230833B1D1A683B4696
:103C0C001B681B789B0013441B889BB223F4E04376
:103C1C0023F07003A7F856303B1D1A683B461B680F
:103C2C001B789B001A44B7F8563043F07F4343F49B
:103C3C007F0343F4014343F080039BB213803B4664
:103C4C001B681A6AD7F82C31D21A3B461B681A62C9
:103C5C003B1D1A683B461B681B789B0013441B8852
:103C6C009BB203F04003002B00F09E8107F1300360
:103C7C003A1D12681A603B461B685B78002B7AD1A0
:103C8C0007F128033A1D12681A603B1D1B68B3F834
:103C9C0050309BB2194607F1280307F1280212682D
:103CAC000A441A603B461B681B781A0107F128036B
:103CBC001B68134403F20C4207F124031A60D7F873
:103CCC002C31002B1AD107F124031B681B889BB2E3
:103CDC0023F4F8439AB207F124031B681A8007F106
:103CEC0024031B681B889BB26FEA43436FEA534360
:103CFC009AB207F124031B681A8062E0D7F82C31C2
:103D0C003E2B19D8D7F82C315B08C7F82831D7F8D7
:103D1C002C3103F00103002B04D0D7F828310133E8
:103D2C00C7F82831D7F828319BB29B029AB207F119
:103D3C0024031B681A8044E0D7F82C315B09C7F8C0
:103D4C002831D7F82C3103F01F03002B04D1D7F8FE
:103D5C002831013BC7F82831D7F828319BB29B0298
:103D6C009BB26FEA43436FEA53439AB207F12403C1
:103D7C001B681A8025E03B461B685B78012B20D121
:103D8C003B1D1B68B3F850309BB2194607F130034A
:103D9C0007F1300212680A441A603B461B681B7814
:103DAC001A0107F130031B68134403F20C4207F1AC
:103DBC002C031A60D7F82C319AB207F12C031B682C
:103DCC001A803B461B685B89A7F896303B461B68FC
:103DDC005969D7F82C319BB2B7F89620381D00687A
:103DEC0001F0D7FA3B461B685A69D7F82C311A44B4
:103DFC003B461B685A613B461B681A6A3B461B686C
:103E0C001B699A4209D93B461B681A6AD7F82C31B0
:103E1C00D21A3B461B681A6208E03B461B681B6AB9
:103E2C00C7F82C313B461B6800221A623B461B68C4
:103E3C005B78002B7AD107F118033A1D12681A60CF
:103E4C003B1D1B68B3F850309BB2194607F11803A1
:103E5C0007F1180212680A441A603B461B681B786B
:103E6C001A0107F118031B68134403F2044207F10B
:103E7C0014031A60D7F82C31002B1AD107F1140354
:103E8C001B681B889BB223F4F8439AB207F1140306
:103E9C001B681A8007F114031B681B889BB26FEA1E
:103EAC0043436FEA53439AB207F114031B681A8019
:103EBC0067E0D7F82C313E2B19D8D7F82C315B089A
:103ECC00C7F82431D7F82C3103F00103002B04D0B0
:103EDC00D7F824310133C7F82431D7F824319BB2F9
:103EEC009B029AB207F114031B681A8049E0D7F8B9
:103EFC002C315B09C7F82431D7F82C3103F01F03A0
:103F0C00002B04D1D7F82431013BC7F82431D7F862
:103F1C0024319BB29B029BB26FEA43436FEA53433B
:103F2C009AB207F114031B681A802AE03B461B68FF
:103F3C005B78012B25D107F120033A1D12681A601A
:103F4C003B1D1B68B3F850309BB2194607F1200398
:103F5C0007F1200212680A441A603B461B681B7862
:103F6C001A0107F120031B68134403F2044207F102
:103F7C001C031A60D7F82C319AB207F11C031B688A
:103F8C001A803B461B681B89A7F896303B461B687A
:103F9C005969D7F82C319BB2B7F89620381D0068B8
:103FAC0001F0F7F900F0C6BC3B461B685B78002BB0
:103FBC0064D13B1D1B68BB643B1D1B68B3F85030C0
:103FCC009BB21A46BB6C1344BB643B461B681B7804
:103FDC001A01BB6C134403F204437B64D7F82C31F5
:103FEC00002B12D17B6C1B889BB223F4F8439AB242
:103FFC007B6C1A807B6C1B889BB26FEA43436FEA25
:10400C0053439AB27B6C1A8057E0D7F82C313E2B75
:10401C0017D8D7F82C315B08C7F82031D7F82C31DA
:10402C0003F00103002B04D0D7F820310133C7F87B
:10403C002031D7F820319BB29B029AB27B6C1A804C
:10404C003BE0D7F82C315B09C7F82031D7F82C317D
:10405C0003F01F03002B04D1D7F82031013BC7F824
:10406C002031D7F820319BB29B029BB26FEA4343BD
:10407C006FEA53439AB27B6C1A801EE03B461B6876
:10408C005B78012B19D13B1D1B683B653B1D1B68E5
:10409C00B3F850309BB21A463B6D13443B653B461C
:1040AC001B681B781A013B6D134403F20443FB6439
:1040BC00D7F82C319AB2FB6C1A803B461B681B89D3
:1040CC00A7F896303B461B685969D7F82C319BB240
:1040DC00B7F89620381D006801F05BF93B461B6869
:1040EC005A69D7F82C311A443B461B685A613B4637
:1040FC001B681A6A3B461B681B699A4209D93B46E6
:10410C001B681A6AD7F82C31D21A3B461B681A6204
:10411C0008E03B461B681B6AC7F82C313B461B6802
:10412C0000221A623B1D1B683B643B461B685B7894
:10413C00002B64D13B1D1B68BB633B1D1B68B3F894
:10414C0050309BB21A46BB6B1344BB633B461B6897
:10415C001B781A01BB6B134403F20C437B63D7F837
:10416C002C31002B12D17B6B1B889BB223F4F843B0
:10417C009AB27B6B1A807B6B1B889BB26FEA4343B2
:10418C006FEA53439AB27B6B1A8054E0D7F82C3108
:10419C003E2B17D8D7F82C315B08C7F81C31D7F851
:1041AC002C3103F00103002B04D0D7F81C31013360
:1041BC00C7F81C31D7F81C319BB29B029AB27B6BAF
:1041CC001A8038E0D7F82C315B09C7F81C31D7F8C6
:1041DC002C3103F01F03002B04D1D7F81C31013B09
:1041EC00C7F81C31D7F81C319BB29B029BB26FEA0B
:1041FC0043436FEA53439AB27B6B1A801BE03B46F6
:10420C001B685B78012B16D13B1D1B68B3F8503033
:10421C009BB21A463B6C13443B643B461B681B78B1
:10422C001A013B6C134403F20C43FB63D7F82C319B
:10423C009AB2FB6B1A803B461B685B89A7F89630D9
:10424C003B461B685969D7F82C319BB2B7F89620BE
:10425C00381D006801F09DF86CE33B461B681B6A37
:10426C00C7F82C313B1D1A683B461B681B789B001A
:10427C0013441B889BB223F4E24323F07003A7F88A
:10428C0062303B1D1A683B461B681B789B001A4426
:10429C00B7F8623043F07F4343F47F0343F40043A9
:1042AC0043F080039BB213803B1D1B68FB653B1DD9
:1042BC001B68B3F850309BB21A46FB6D1344FB6578
:1042CC003B461B681B781A01FB6D134403F2044335
:1042DC00BB65D7F82C319AB2BB6D1A803B461B6874
:1042EC001B89A7F896303B461B685969D7F82C31C7
:1042FC009BB2B7F89620381D006801F04AF819E314
:10430C003B1D1A683B461B681B789B0013441B889B
:10431C009BB223F4E04323F07003A7F8A8303B1DB5
:10432C001A683B461B681B789B001A44B7F8A830E8
:10433C0043F07F4343F47F0343F4014343F0800392
:10434C009BB213803B461B681A6AD7F82C31D21AE1
:10435C003B461B681A623B1D1A683B461B681B7860
:10436C009B0013441B889BB203F04003002B00F00E
:10437C0062813B1D1B68C7F880303B461B685B782D
:10438C00002B64D13B1D1B68BB673B1D1B68B3F83E
:10439C0050309BB21A46BB6F1344BB673B461B683D
:1043AC001B781A01BB6F134403F20C437B67D7F8DD
:1043BC002C31002B12D17B6F1B889BB223F4F8435A
:1043CC009AB27B6F1A807B6F1B889BB26FEA434358
:1043DC006FEA53439AB27B6F1A8057E0D7F82C31AF
:1043EC003E2B17D8D7F82C315B08C7F81831D7F803
:1043FC002C3103F00103002B04D0D7F81831013312
:10440C00C7F81831D7F818319BB29B029AB27B6F60
:10441C001A803BE0D7F82C315B09C7F81831D7F874
:10442C002C3103F01F03002B04D1D7F81831013BBA
:10443C00C7F81831D7F818319BB29B029BB26FEAC0
:10444C0043436FEA53439AB27B6F1A801EE03B469C
:10445C001B685B78012B19D13B1D1B68B3F85030DE
:10446C009BB21A46D7F880301344C7F880303B46CD
:10447C001B681B781A01D7F88030134403F20C43E5
:10448C00FB67D7F82C319AB2FB6F1A803B461B683E
:10449C005B89A7F896303B461B685969D7F82C31D5
:1044AC009BB2B7F89620381D006800F072FF3B46AF
:1044BC001B685A69D7F82C311A443B461B685A6161
:1044CC003B461B681A6A3B461B681B699A4209D912
:1044DC003B461B681A6AD7F82C31D21A3B461B682C
:1044EC001A6208E03B461B681B6AC7F82C313B4636
:1044FC001B6800221A62D7F82C31002B00F01A82AC
:10450C003B461B685B78002B64D13B1D1B68BB666C
:10451C003B1D1B68B3F850309BB21A46BB6E13445C
:10452C00BB663B461B681B781A01BB6E134403F237
:10453C0004437B66D7F82C31002B12D17B6E1B8881
:10454C009BB223F4F8439AB27B6E1A807B6E1B8865
:10455C009BB26FEA43436FEA53439AB27B6E1A8065
:10456C0057E0D7F82C313E2B17D8D7F82C315B08F5
:10457C00C7F81431D7F82C3103F00103002B04D009
:10458C00D7F814310133C7F81431D7F814319BB272
:10459C009B029AB27B6E1A803BE0D7F82C315B09F8
:1045AC00C7F81431D7F82C3103F01F03002B04D1BA
:1045BC00D7F81431013BC7F81431D7F814319BB23A
:1045CC009B029BB26FEA43436FEA53439AB27B6EF2
:1045DC001A801EE03B461B685B78012B19D13B1DF2
:1045EC001B683B673B1D1B68B3F850309BB21A46E7
:1045FC003B6F13443B673B461B681B781A013B6FB0
:10460C00134403F20443FB66D7F82C319AB2FB6EC9
:10461C001A803B461B681B89A7F896303B461B68E3
:10462C005969D7F82C319BB2B7F89620381D006821
:10463C0000F0AFFE7EE13B461B685B78002B6FD130
:10464C003B1D1B68C7F89C303B1D1B68B3F85030F2
:10465C009BB21A46D7F89C301344C7F89C303B46A3
:10466C001B681B781A01D7F89C30134403F20443DF
:10467C00C7F89830D7F82C31002B16D1D7F89830D2
:10468C001B889BB223F4F8439AB2D7F898301A805F
:10469C00D7F898301B889BB26FEA43436FEA5343B9
:1046AC009AB2D7F898301A805FE0D7F82C313E2BAD
:1046BC0018D8D7F82C315B08C7F81031D7F82C3143
:1046CC0003F00103002B04D0D7F810310133C7F8E5
:1046DC001031D7F810319BB29B029AB2D7F89830B0
:1046EC001A8042E0D7F82C315B09C7F81031D7F8A3
:1046FC002C3103F01F03002B04D1D7F81031013BF0
:10470C00C7F81031D7F810319BB29B029BB26FEAFD
:10471C0043436FEA53439AB2D7F898301A8024E097
:10472C003B461B685B78012B1FD13B1D1B68C7F8F0
:10473C00A4303B1D1B68B3F850309BB21A46D7F817
:10474C00A4301344C7F8A4303B461B681B781A01ED
:10475C00D7F8A430134403F20443C7F8A030D7F8B9
:10476C002C319AB2D7F8A0301A803B461B681B89B3
:10477C00A7F896303B461B685969D7F82C319BB289
:10478C00B7F89620381D006800F003FE3B461B6806
:10479C005A69D7F82C311A443B461B685A613B4680
:1047AC001B681A6A3B461B681B699A4209D93B462F
:1047BC001B681A6AD7F82C31D21A3B461B681A624E
:1047CC0008E03B461B681B6AC7F82C313B461B684C
:1047DC0000221A62D7F82C31002B00F0AB803B1D65
:1047EC001B68C7F890303B461B685B78002B6FD179
:1047FC003B1D1B68C7F888303B1D1B68B3F8503055
:10480C009BB21A46D7F888301344C7F888303B4619
:10481C001B681B781A01D7F88830134403F20C4339
:10482C00C7F88430D7F82C31002B16D1D7F8843048
:10483C001B889BB223F4F8439AB2D7F884301A80C1
:10484C00D7F884301B889BB26FEA43436FEA53431B
:10485C009AB2D7F884301A805BE0D7F82C313E2B13
:10486C0018D8D7F82C315B08C7F80C31D7F82C3195
:10487C0003F00103002B04D0D7F80C310133C7F837
:10488C000C31D7F80C319BB29B029AB2D7F884301A
:10489C001A803EE0D7F82C315B09C7F80C31D7F8F9
:1048AC002C3103F01F03002B04D1D7F80C31013B42
:1048BC00C7F80C31D7F80C319BB29B029BB26FEA54
:1048CC0043436FEA53439AB2D7F884301A8020E0FE
:1048DC003B461B685B78012B1BD13B1D1B68B3F857
:1048EC0050309BB21A46D7F890301344C7F890302A
:1048FC003B461B681B781A01D7F89030134403F21F
:10490C000C43C7F88C30D7F82C319AB2D7F88C30CE
:10491C001A803B461B685B89A7F896303B461B68A0
:10492C005969D7F82C319BB2B7F89620381D00681E
:10493C0000F02FFD3B1D1A683B461B681B789B0043
:10494C0013441B889BB207F10A0223F4E04323F0C3
:10495C004003138007F10A0307F10A02128882F060
:10496C0010021A8007F10A0307F10A02128882F07A
:10497C0020021A803B1D1A683B461B681B789B0063
:10498C001A4407F10A031B8843F07F4343F47F0367
:10499C0043F4004343F080039BB21380B5E33B46E2
:1049AC001B681B7B002B40F090803B461B689A6970
:1049BC003B461B681B699A420ED93B461B681B6918
:1049CC00C7F82C313B461B689A69D7F82C31D21AA0
:1049DC003B461B689A6108E03B461B689B69C7F81D
:1049EC002C313B461B6800229A613B1D1B68C7F8A3
:1049FC00B0303B1D1B68B3F850309BB21A46D7F849
:104A0C00B0301344C7F8B0303B461B681B781A0112
:104A1C00D7F8B030134403F20C43C7F8AC30D7F8D6
:104A2C002C31002B16D1D7F8AC301B889BB223F459
:104A3C00F8439AB2D7F8AC301A80D7F8AC301B8850
:104A4C009BB26FEA43436FEA53439AB2D7F8AC3048
:104A5C001A802CE3D7F82C313E2B18D8D7F82C31F0
:104A6C005B08C7F80831D7F82C3103F00103002B91
:104A7C0004D0D7F808310133C7F80831D7F808311A
:104A8C009BB29B029AB2D7F8AC301A800FE3D7F8DE
:104A9C002C315B09C7F80831D7F82C3103F01F0310
:104AAC00002B04D1D7F80831013BC7F80831D7F8EF
:104ABC0008319BB29B029BB26FEA43436FEA5343AC
:104ACC009AB2D7F8AC301A80F1E23B461B68DB781F
:104ADC00022B40F08F813B461B685B78002B75D115
:104AEC003B1D1B68C7F8CC303B1D1B68B3F850301E
:104AFC009BB21A46D7F8CC301344C7F8CC303B469F
:104B0C001B681B781A01D7F8CC30134403F204430A
:104B1C00C7F8C8303B461B681B69002B16D1D7F869
:104B2C00C8301B889BB223F4F8439AB2D7F8C8302C
:104B3C001A80D7F8C8301B889BB26FEA43436FEAE0
:104B4C0053439AB2D7F8C8301A8065E03B461B68CD
:104B5C001B693E2B1AD83B461B681B695B08C7F8C0
:104B6C0004313B461B681B6903F00103002B04D086
:104B7C00D7F804310133C7F80431D7F804319BB2AC
:104B8C009B029AB2D7F8C8301A8045E03B461B68A6
:104B9C001B695B09C7F804313B461B681B6903F0B2
:104BAC001F03002B04D1D7F80431013BC7F80431A3
:104BBC00D7F804319BB29B029BB26FEA43436FEA76
:104BCC0053439AB2D7F8C8301A8025E03B461B688D
:104BDC005B78012B20D13B1D1B68C7F8D4303B1DE3
:104BEC001B68B3F850309BB21A46D7F8D430134434
:104BFC00C7F8D4303B461B681B781A01D7F8D43061
:104C0C00134403F20443C7F8D0303B461B681B69BE
:104C1C009AB2D7F8D0301A803B1D1B68C7F8C43045
:104C2C003B461B685B78002B75D13B1D1B68C7F896
:104C3C00BC303B1D1B68B3F850309BB21A46D7F8FA
:104C4C00BC301344C7F8BC303B461B681B781A01B8
:104C5C00D7F8BC30134403F20C43C7F8B8303B46CA
:104C6C001B681B69002B16D1D7F8B8301B889BB278
:104C7C0023F4F8439AB2D7F8B8301A80D7F8B83082
:104C8C001B889BB26FEA43436FEA53439AB2D7F83F
:104C9C00B8301A8061E03B461B681B693E2B1AD862
:104CAC003B461B681B695B08C7F800313B461B6819
:104CBC001B6903F00103002B04D0D7F8003101333A
:104CCC00C7F80031D7F800319BB29B029AB2D7F8E3
:104CDC00B8301A8041E03B461B681B695B09C7F87A
:104CEC0000313B461B681B6903F01F03002B04D1EA
:104CFC00D7F80031013BC7F80031D7F800319BB22F
:104D0C009B029BB26FEA43436FEA53439AB2D7F8C4
:104D1C00B8301A8021E03B461B685B78012B1CD114
:104D2C003B1D1B68B3F850309BB21A46D7F8C43001
:104D3C001344C7F8C4303B461B681B781A01D7F8DC
:104D4C00C430134403F20C43C7F8C0303B461B6815
:104D5C001B699AB2D7F8C0301A803B461B68DB69D6
:104D6C00002B00F0A4813B1D1A683B461B681B7886
:104D7C009B0013441B88A7F8B630B7F8B63003F481
:104D8C008043002B05D0B7F8B63003F04003002B5E
:104D9C000DD1B7F8B63003F48043002B40F0878177
:104DAC00B7F8B63003F04003002B40F080813B1D78
:104DBC001A683B461B681B789B0013441B889BB2EC
:104DCC0023F4E04323F07003A7F8B4303B1D1A68BA
:104DDC003B461B681B789B001A44B7F8B43043F071
:104DEC007F4343F47F0343F4004343F0C0039BB27F
:104DFC0013805CE13B461B68DB78012B40F055814E
:104E0C003B461B689A693B461B681B699A420ED944
:104E1C003B461B681B69C7F82C313B461B689A69DB
:104E2C00D7F82C31D21A3B461B689A6108E03B46F6
:104E3C001B689B69C7F82C313B461B6800229A61A2
:104E4C003B461B685B78002B6FD13B1D1B68C7F87A
:104E5C00EC303B1D1B68B3F850309BB21A46D7F8A8
:104E6C00EC301344C7F8EC303B461B681B781A0136
:104E7C00D7F8EC30134403F20443C7F8E830D7F802
:104E8C002C31002B16D1D7F8E8301B889BB223F4B9
:104E9C00F8439AB2D7F8E8301A80D7F8E8301B8874
:104EAC009BB26FEA43436FEA53439AB2D7F8E830A8
:104EBC001A805FE0D7F82C313E2B18D8D7F82C315C
:104ECC005B08C7F8FC30D7F82C3103F00103002B3A
:104EDC0004D0D7F8FC300133C7F8FC30D7F8FC30DD
:104EEC009BB29B029AB2D7F8E8301A8042E0D7F80E
:104EFC002C315B09C7F8FC30D7F82C3103F01F03B9
:104F0C00002B04D1D7F8FC30013BC7F8FC30D7F8A4
:104F1C00FC309BB29B029BB26FEA43436FEA534354
:104F2C009AB2D7F8E8301A8024E03B461B685B78CD
:104F3C00012B1FD13B1D1B68C7F8F4303B1D1B68B0
:104F4C00B3F850309BB21A46D7F8F4301344C7F874
:104F5C00F4303B461B681B781A01D7F8F430134425
:104F6C0003F20443C7F8F030D7F82C319AB2D7F8D3
:104F7C00F0301A803B1D1B68C7F8E4303B461B68B9
:104F8C005B78002B6FD13B1D1B68C7F8DC303B1DD9
:104F9C001B68B3F850309BB21A46D7F8DC30134478
:104FAC00C7F8DC303B461B681B781A01D7F8DC309D
:104FBC00134403F20C43C7F8D830D7F82C31002B2C
:104FCC0016D1D7F8D8301B889BB223F4F8439AB289
:104FDC00D7F8D8301A80D7F8D8301B889BB26FEA34
:104FEC0043436FEA53439AB2D7F8D8301A805EE045
:104FFC00D7F82C313E2B18D8D7F82C315B08C7F8D2
:10500C00F830D7F82C3103F00103002B04D0D7F87B
:10501C00F8300133C7F8F830D7F8F8309BB29B0260
:10502C009AB2D7F8D8301A8041E0D7F82C315B0906
:10503C00C7F8F830D7F82C3103F01F03002B04D13C
:10504C00D7F8F830013BC7F8F830D7F8F8309BB2F6
:10505C009B029BB26FEA43436FEA53439AB2D7F871
:10506C00D8301A8023E03B461B685B78012B1ED19D
:10507C003B1D1B68B3F850309BB21A46D7F8E4308E
:10508C001344C7F8E4303B461B681B781A01D7F869
:10509C00E430134403F20C43C7F8E030D7F82C315A
:1050AC009AB2D7F8E0301A8001E001232EE03B1DC4
:1050BC001A683B461B681B789B0013441B889BB2E9
:1050CC0023F4804323F07003A7F8AA30B7F8AA3072
:1050DC0083F48053A7F8AA30B7F8AA3083F40053AE
:1050EC00A7F8AA303B1D1A683B461B681B789B002F
:1050FC001A44B7F8AA3043F07F4343F47F0343F4D8
:10510C00004343F080039BB213800023184607F53D
:10511C009877BD4680BD80B485B000AF78603960AB
:10512C003B685B78002B20D07A683B681B789B002F
:10513C0013441B889BB223F4E04323F04003BB8150
:10514C00BB8983F01003BB817A683B681B789B009A
:10515C001A44BB8943F07F4343F47F0343F4004379
:10516C0043F080039BB213801FE07A683B681B7886
:10517C009B0013441B889BB223F4804323F07003E1
:10518C00FB81FB8983F48053FB817A683B681B7835
:10519C009B001A44FB8943F07F4343F47F0343F4A1
:1051AC00004343F080039BB213800023184614374E
:1051BC00BD4680BC704780B487B000AF7860396062
:1051CC003B681B7B002B40F09D803B685B78002B81
:1051DC004CD07A683B681B789B0013441B883B823D
:1051EC003B8A03F04003002B1BD07A683B681B788A
:1051FC009B0013441B889BB223F4E04323F0700301
:10520C00FB817A683B681B789B001A44FB8943F04E
:10521C007F4343F47F0343F4004343F0C0039BB24A
:10522C0013803B68DB78012B6CD07A683B681B7869
:10523C009B0013441B889BB223F4E04323F04003F0
:10524C00BB81BB8983F02003BB817A683B681B78E8
:10525C009B001A44BB8943F07F4343F47F0343F420
:10526C00004343F080039BB213804BE07A683B68A9
:10527C001B789B0013441B88FB82FB8A03F480433E
:10528C00002B1BD07A683B681B789B0013441B884F
:10529C009BB223F4E04323F07003BB827A683B6833
:1052AC001B789B001A44BB8A43F07F4343F47F0373
:1052BC0043F4404343F080039BB213807A683B680D
:1052CC001B789B0013441B889BB223F4804323F070
:1052DC0070037B827B8A83F480537B827B8A83F48A
:1052EC0000537B827A683B681B789B001A447B8A4C
:1052FC0043F07F4343F47F0343F4004343F08003C4
:10530C009BB21380002318461C37BD4680BC7047E7
:10531C0080B483B000AF78600B46FB70FB78002B39
:10532C0003D17B688022A3F84C20002318460C374D
:10533C00BD4680BC704780B483B000AF786000235A
:10534C0018460C37BD4680BC704780B483B000AFA4
:10535C007860002318460C37BD4680BC704780B47B
:10536C0085B000AF78607B68B3F844309BB2FB60CB
:10537C00FB6818461437BD4680BC704780B483B0B8
:10538C0000AF78603960002318460C37BD4680BCEE
:10539C00704780B48DB000AFF860B96011461A4602
:1053AC000B46FB801346BB80BB8801335B083B621A
:1053BC00FB68FB61BB687B62FB885A00FB6913448A
:1053CC0003F58063BB623B6AFB621EE07B6A1B7861
:1053DC00BB617B6A01337B627B6A1B789BB21B02CD
:1053EC009BB21A46BB6913437B617B699AB2BB6A59
:1053FC001A80BB6A0233BB62BB6A0233BB627B6A34
:10540C0001337B62FB6A013BFB62FB6A002BDDD143
:10541C0000BF00BF3437BD4680BC704780B48BB032
:10542C0000AFF860B96011461A460B46FB80134674
:10543C00BB80BB885B089BB2BB61FB687B61BB68B4
:10544C00FB61FB885A007B69134403F580633B6264
:10545C00BB697B621BE03B6A1B889BB23B613B6A6E
:10546C0002333B623B69DAB2FB691A70FB690133A8
:10547C00FB613B691B0ADAB2FB691A70FB690133E9
:10548C00FB613B6A02333B627B6A013B7B627B6A5A
:10549C00002BE0D1BB8803F001039BB2002B07D09B
:1054AC003B6A1B889BB23B613B69DAB2FB691A70A1
:1054BC0000BF2C37BD4680BC704780B584B000AFB0
:1054CC0078600B46FB700023FB737B681B7C002B06
:1054DC0015D14FF4007302228121786801F087FE08
:1054EC007B680122DA624FF4007302220121786892
:1054FC0001F07DFE7B680122C3F86C2112E0402391
:10550C0002228121786801F072FE7B680122DA6246
:10551C00402302220121786801F069FE7B68012298
:10552C00C3F86C21082303228221786801F05FFE06
:10553C007B6801221A644FF4077001F07FFF02466A
:10554C007B68C3F8B8227B68D3F8B832002B02D141
:10555C000123FB7326E07B68D3F8B832BB607B6811
:10556C00D3F8BC321B689847BB680022C3F81422DE
:10557C00BB680022C3F818227B681B7C002B09D166
:10558C00BB68D3F804224FF400730121786801F052
:10559C001FFF07E0BB68D3F8042240230121786881
:1055AC0001F016FFFB7B18461037BD4680BD80B559
:1055BC0084B000AF78600B46FB700023FB73812135
:1055CC00786801F03AFE7B680022DA620121786883
:1055DC0001F033FE7B680022C3F86C2182217868CD
:1055EC0001F02BFE7B6800221A647B68D3F8B8327A
:1055FC00002B0ED07B68D3F8BC325B6898477B6875
:10560C00D3F8B832184601F025FF7B680022C3F8A6
:10561C00B822FB7B18461037BD4680BD80B586B0DE
:10562C0000AF786039607B68D3F8B8323B610023F7
:10563C00FB730023BB810023FB753B681B7803F0D5
:10564C006003002B39D0202B7FD13B68DB88002BEB
:10565C0029D03B681B785BB2002B11DA7B68D3F83E
:10566C00BC329B683A68507839693A68D288984756
:10567C0039693B68DB881A46786801F00AFA6BE0F6
:10568C003B685A783B6983F800223B68DB88DAB2C6
:10569C003B6983F8012239693B68DB881A467868D4
:1056AC0001F025FA58E07B68D3F8BC329B683A6865
:1056BC0050780022396898474EE03B685B780B2B9A
:1056CC002ED00B2B38DC002B02D00A2B14D033E05D
:1056DC007B6893F89C32032B07D107F10C03022251
:1056EC001946786801F0D5F92EE03968786801F030
:1056FC0066F90223FB7527E07B6893F89C32032B39
:10570C0007D107F10F0301221946786801F0C1F99E
:10571C001AE03968786801F052F90223FB7513E03E
:10572C007B6893F89C32032B0DD03968786801F0B4
:10573C0046F90223FB7506E03968786801F03FF9F9
:10574C000223FB7500E000BF06E03968786801F0C1
:10575C0036F90223FB7500BFFB7D18461837BD4692
:10576C0080BD80B584B000AF78600B46FB707B6861
:10577C00D3F8B832FB607B68D3F8C032BB607B686F
:10578C00D3F8B832002B3AD0FA78796813469B00DC
:10579C0013449B000B441C331B68002B29D0FA7854
:1057AC00796813469B0013449B000B441C331A6806
:1057BC00F978B8680B469B000B44DB000344383384
:1057CC001B68B2FBF3F103FB01F3D31A002B10D1CE
:1057DC00FA78796813469B0013449B000B441C33E6
:1057EC0000221A60F97800230022786801F0CDFDC0
:1057FC0003E0FB680022C3F81422002300E002231C
:10580C0018461037BD4680BD80B584B000AF7860B7
:10581C000B46FB707B68D3F8B832FB60FB781946FB
:10582C00786801F0F8FD0246FB68C3F80C227B682F
:10583C00D3F8B832002B0DD07B68D3F8BC32DB68C0
:10584C00FA68D2F80402FA6802F503721146984716
:10585C00002300E0022318461037BD4680BD80B5FA
:10586C0084B000AF78607B68D3F8B832FB607B689B
:10587C00D3F8BC32002B15D0FB6893F80032FF2B09
:10588C0010D07B68D3F8BC329B68FA6892F800029F
:10589C00F968FA6892F8012292B29847FB68FF22E5
:1058AC0083F80022002318461037BD4680BD000047
:1058BC0080B483B000AF78607B6843221A80034BBE
:1058CC0018460C37BD4680BC704700BF94000020C2
:1058DC0080B483B000AF78607B6843221A80034B9E
:1058EC0018460C37BD4680BC704700BF50000020E6
:1058FC0080B483B000AF78607B6843221A80034B7E
:10590C0018460C37BD4680BC704700BFD80000203D
:10591C0080B483B000AF78607B680A221A80034B96
:10592C0018460C37BD4680BC704700BF0C000020E9
:10593C0080B485B000AF786039600223FB733B689C
:10594C00002B05D07B683A68C3F8BC220023FB739C
:10595C00FB7B18461437BD4680BC704780B487B0BB
:10596C0000AFF860B9601346FB80FB68D3F8B8321F
:10597C007B617B69BA68C3F80822FA887B69C3F833
:10598C001022002318461C37BD4680BC704780B4DB
:10599C0085B000AF786039607B68D3F8B832FB60B3
:1059AC00FB683A68C3F80422002318461437BD4636
:1059BC0080BC704780B584B000AF78607B68D3F84A
:1059CC00B832FB607B68D3F8B832002B1CD0FB6874
:1059DC00D3F81432002B15D1FB680122C3F8142222
:1059EC00FB68D3F810227B681A63FB68D3F8082293
:1059FC00FB68D3F810329BB28121786801F0C5FCAA
:105A0C00002302E0012300E0022318461037BD46B4
:105A1C0080BD80B584B000AF78607B68D3F8B832B5
:105A2C00FB607B68D3F8B832002B17D07B681B7CEB
:105A3C00002B09D1FB68D3F804224FF40073012129
:105A4C00786801F0C5FC07E0FB68D3F8042240231A
:105A5C000121786801F0BCFC002300E00223184609
:105A6C001037BD4680BD80B584B000AFF860B9601A
:105A7C001346FB71FB68002B01D102231AE0FB6873
:105A8C00D3F8B432002B03D0FB680022C3F8B42245
:105A9C00BB68002B03D0FB68BA68C3F8B022FB6864
:105AAC00012283F89C22FB68FA791A70F86801F0DD
:105ABC0029FB002318461037BD4680BD80B485B045
:105ACC0000AF786039600023FB733B68002B06D075
